{
  "contractName": "Main",
  "abi": [
    {
      "inputs": [],
      "stateMutability": "nonpayable",
      "type": "constructor"
    },
    {
      "inputs": [
        {
          "internalType": "string",
          "name": "",
          "type": "string"
        },
        {
          "internalType": "uint256",
          "name": "",
          "type": "uint256"
        }
      ],
      "name": "CRList",
      "outputs": [
        {
          "internalType": "string",
          "name": "ChallengeHash",
          "type": "string"
        },
        {
          "internalType": "string",
          "name": "ResponseHash",
          "type": "string"
        },
        {
          "internalType": "string",
          "name": "DeviceId",
          "type": "string"
        }
      ],
      "stateMutability": "view",
      "type": "function",
      "constant": true
    },
    {
      "inputs": [
        {
          "internalType": "string",
          "name": "",
          "type": "string"
        },
        {
          "internalType": "uint256",
          "name": "",
          "type": "uint256"
        }
      ],
      "name": "filehashList",
      "outputs": [
        {
          "internalType": "string",
          "name": "ipfsHash",
          "type": "string"
        },
        {
          "internalType": "string",
          "name": "fileName",
          "type": "string"
        },
        {
          "internalType": "string",
          "name": "fileType",
          "type": "string"
        },
        {
          "internalType": "uint256",
          "name": "fileSize",
          "type": "uint256"
        },
        {
          "internalType": "string",
          "name": "dateAdded",
          "type": "string"
        },
        {
          "internalType": "string",
          "name": "timeAdded",
          "type": "string"
        },
        {
          "internalType": "uint256",
          "name": "downloadCount",
          "type": "uint256"
        }
      ],
      "stateMutability": "view",
      "type": "function",
      "constant": true
    },
    {
      "inputs": [
        {
          "internalType": "string",
          "name": "_ChallengeHash",
          "type": "string"
        },
        {
          "internalType": "string",
          "name": "_ResponseHash",
          "type": "string"
        },
        {
          "internalType": "string",
          "name": "_DeviceId",
          "type": "string"
        },
        {
          "internalType": "string",
          "name": "_mId",
          "type": "string"
        }
      ],
      "name": "addDevice",
      "outputs": [],
      "stateMutability": "nonpayable",
      "type": "function"
    },
    {
      "inputs": [
        {
          "internalType": "string",
          "name": "_mId",
          "type": "string"
        }
      ],
      "name": "getDevices",
      "outputs": [
        {
          "components": [
            {
              "internalType": "string",
              "name": "ChallengeHash",
              "type": "string"
            },
            {
              "internalType": "string",
              "name": "ResponseHash",
              "type": "string"
            },
            {
              "internalType": "string",
              "name": "DeviceId",
              "type": "string"
            }
          ],
          "internalType": "struct Main.ChallengeResponseFiles[]",
          "name": "",
          "type": "tuple[]"
        }
      ],
      "stateMutability": "view",
      "type": "function",
      "constant": true
    },
    {
      "inputs": [
        {
          "internalType": "string",
          "name": "_deviceId",
          "type": "string"
        }
      ],
      "name": "getfiles",
      "outputs": [
        {
          "components": [
            {
              "internalType": "string",
              "name": "ipfsHash",
              "type": "string"
            },
            {
              "internalType": "string",
              "name": "fileName",
              "type": "string"
            },
            {
              "internalType": "string",
              "name": "fileType",
              "type": "string"
            },
            {
              "internalType": "uint256",
              "name": "fileSize",
              "type": "uint256"
            },
            {
              "internalType": "string",
              "name": "dateAdded",
              "type": "string"
            },
            {
              "internalType": "string",
              "name": "timeAdded",
              "type": "string"
            },
            {
              "internalType": "uint256",
              "name": "downloadCount",
              "type": "uint256"
            }
          ],
          "internalType": "struct Main.DocInfo[]",
          "name": "",
          "type": "tuple[]"
        }
      ],
      "stateMutability": "view",
      "type": "function",
      "constant": true
    },
    {
      "inputs": [
        {
          "internalType": "string",
          "name": "prev",
          "type": "string"
        },
        {
          "internalType": "string",
          "name": "newAdmin",
          "type": "string"
        }
      ],
      "name": "adminAdd",
      "outputs": [],
      "stateMutability": "nonpayable",
      "type": "function"
    },
    {
      "inputs": [
        {
          "internalType": "string",
          "name": "_address",
          "type": "string"
        },
        {
          "internalType": "string",
          "name": "_name",
          "type": "string"
        },
        {
          "internalType": "string",
          "name": "_userName",
          "type": "string"
        },
        {
          "internalType": "string",
          "name": "_email",
          "type": "string"
        },
        {
          "internalType": "bool",
          "name": "_isAdmin",
          "type": "bool"
        },
        {
          "internalType": "string",
          "name": "_adminId",
          "type": "string"
        }
      ],
      "name": "signUp",
      "outputs": [],
      "stateMutability": "nonpayable",
      "type": "function"
    },
    {
      "inputs": [
        {
          "internalType": "string",
          "name": "_address",
          "type": "string"
        }
      ],
      "name": "signIn",
      "outputs": [
        {
          "components": [
            {
              "internalType": "string",
              "name": "name",
              "type": "string"
            },
            {
              "internalType": "string",
              "name": "username",
              "type": "string"
            },
            {
              "internalType": "string",
              "name": "email",
              "type": "string"
            },
            {
              "internalType": "bool",
              "name": "isexist",
              "type": "bool"
            },
            {
              "internalType": "bool",
              "name": "isAdmin",
              "type": "bool"
            },
            {
              "internalType": "string",
              "name": "adminId",
              "type": "string"
            }
          ],
          "internalType": "struct Main.UserInfo",
          "name": "",
          "type": "tuple"
        }
      ],
      "stateMutability": "view",
      "type": "function",
      "constant": true
    },
    {
      "inputs": [
        {
          "internalType": "string",
          "name": "_address",
          "type": "string"
        }
      ],
      "name": "isAdmin",
      "outputs": [
        {
          "internalType": "bool",
          "name": "",
          "type": "bool"
        }
      ],
      "stateMutability": "view",
      "type": "function",
      "constant": true
    },
    {
      "inputs": [
        {
          "internalType": "string",
          "name": "_address",
          "type": "string"
        },
        {
          "internalType": "string",
          "name": "_ipfsHash",
          "type": "string"
        },
        {
          "internalType": "string",
          "name": "_fileName",
          "type": "string"
        },
        {
          "internalType": "string",
          "name": "_fileType",
          "type": "string"
        },
        {
          "internalType": "string",
          "name": "_dateAdded",
          "type": "string"
        },
        {
          "internalType": "string",
          "name": "_timeAdded",
          "type": "string"
        },
        {
          "internalType": "uint256",
          "name": "_fileSize",
          "type": "uint256"
        },
        {
          "internalType": "string",
          "name": "_deviceId",
          "type": "string"
        }
      ],
      "name": "addFile",
      "outputs": [],
      "stateMutability": "nonpayable",
      "type": "function"
    },
    {
      "inputs": [
        {
          "internalType": "string",
          "name": "_address",
          "type": "string"
        },
        {
          "internalType": "string",
          "name": "_ipfs",
          "type": "string"
        }
      ],
      "name": "newDownloadByUser",
      "outputs": [],
      "stateMutability": "nonpayable",
      "type": "function"
    },
    {
      "inputs": [],
      "name": "getFiles",
      "outputs": [
        {
          "components": [
            {
              "internalType": "string",
              "name": "ipfsHash",
              "type": "string"
            },
            {
              "internalType": "string",
              "name": "fileName",
              "type": "string"
            },
            {
              "internalType": "string",
              "name": "fileType",
              "type": "string"
            },
            {
              "internalType": "uint256",
              "name": "fileSize",
              "type": "uint256"
            },
            {
              "internalType": "string",
              "name": "dateAdded",
              "type": "string"
            },
            {
              "internalType": "string",
              "name": "timeAdded",
              "type": "string"
            },
            {
              "internalType": "uint256",
              "name": "downloadCount",
              "type": "uint256"
            }
          ],
          "internalType": "struct Main.DocInfo[]",
          "name": "",
          "type": "tuple[]"
        }
      ],
      "stateMutability": "view",
      "type": "function",
      "constant": true
    },
    {
      "inputs": [
        {
          "internalType": "string",
          "name": "_address",
          "type": "string"
        }
      ],
      "name": "downloadedbyUser",
      "outputs": [
        {
          "internalType": "string[]",
          "name": "",
          "type": "string[]"
        }
      ],
      "stateMutability": "view",
      "type": "function",
      "constant": true
    },
    {
      "inputs": [
        {
          "internalType": "string",
          "name": "_address",
          "type": "string"
        }
      ],
      "name": "uploadedbyAdmin",
      "outputs": [
        {
          "internalType": "string[]",
          "name": "",
          "type": "string[]"
        }
      ],
      "stateMutability": "view",
      "type": "function",
      "constant": true
    }
  ],
  "bytecode": "0x60806040523480156200001157600080fd5b50600480600181540180825580915050600190039060005260206000200160006040518060600160405280602a815260200162003456602a9139909190915090816200005e9190620002df565b50620003c6565b600081519050919050565b7f4e487b7100000000000000000000000000000000000000000000000000000000600052604160045260246000fd5b7f4e487b7100000000000000000000000000000000000000000000000000000000600052602260045260246000fd5b60006002820490506001821680620000e757607f821691505b602082108103620000fd57620000fc6200009f565b5b50919050565b60008190508160005260206000209050919050565b60006020601f8301049050919050565b600082821b905092915050565b600060088302620001677fffffffffffffffffffffffffffffffffffffffffffffffffffffffffffffffff8262000128565b62000173868362000128565b95508019841693508086168417925050509392505050565b6000819050919050565b6000819050919050565b6000620001c0620001ba620001b4846200018b565b62000195565b6200018b565b9050919050565b6000819050919050565b620001dc836200019f565b620001f4620001eb82620001c7565b84845462000135565b825550505050565b600090565b6200020b620001fc565b62000218818484620001d1565b505050565b5b8181101562000240576200023460008262000201565b6001810190506200021e565b5050565b601f8211156200028f57620002598162000103565b620002648462000118565b8101602085101562000274578190505b6200028c620002838562000118565b8301826200021d565b50505b505050565b600082821c905092915050565b6000620002b46000198460080262000294565b1980831691505092915050565b6000620002cf8383620002a1565b9150826002028217905092915050565b620002ea8262000065565b67ffffffffffffffff81111562000306576200030562000070565b5b620003128254620000ce565b6200031f82828562000244565b600060209050601f83116001811462000357576000841562000342578287015190505b6200034e8582620002c1565b865550620003be565b601f198416620003678662000103565b60005b8281101562000391578489015182556001820191506020850194506020810190506200036a565b86831015620003b15784890151620003ad601f891682620002a1565b8355505b6001600288020188555050505b505050505050565b61308080620003d66000396000f3fe608060405234801561001057600080fd5b50600436106100ea5760003560e01c806394c5aa5e1161008c578063c95f728a11610066578063c95f728a14610275578063caddc30c146102a5578063df021a17146102d5578063f3d8730c14610305576100ea565b806394c5aa5e146101f3578063aadb5fbd14610223578063c01b6c3c1461023f576100ea565b80632da96d73116100c85780632da96d73146101435780634111949c14610161578063505440f51461019157806392d5d8bd146101c1576100ea565b80630aba9ddc146100ef5780630bb1afc61461010b5780630cd8664814610127575b600080fd5b61010960048036038101906101049190611f20565b610321565b005b61012560048036038101906101209190611f98565b6104b8565b005b610141600480360381019061013c9190611f20565b61056a565b005b61014b6105c8565b6040516101589190612281565b60405180910390f35b61017b600480360381019061017691906122a3565b610915565b604051610188919061240c565b60405180910390f35b6101ab60048036038101906101a691906122a3565b610b48565b6040516101b891906124f0565b60405180910390f35b6101db60048036038101906101d6919061253e565b610c3f565b6040516101ea939291906125e4565b60405180910390f35b61020d600480360381019061020891906122a3565b610e34565b60405161021a91906124f0565b60405180910390f35b61023d60048036038101906102389190612668565b610f2b565b005b6102596004803603810190610254919061253e565b61109b565b60405161026c9796959493929190612790565b60405180910390f35b61028f600480360381019061028a91906122a3565b6113b8565b60405161029c91906128cf565b60405180910390f35b6102bf60048036038101906102ba91906122a3565b61166e565b6040516102cc9190612281565b60405180910390f35b6102ef60048036038101906102ea91906122a3565b6119d9565b6040516102fc9190612900565b60405180910390f35b61031f600480360381019061031a919061291b565b611a86565b005b81816000805b60048054905081101561043557836040516020016103459190612ad1565b604051602081830303815290604052805190602001206004828154811061036f5761036e612ae8565b5b906000526020600020016040516020016103899190612c0f565b60405160208183030381529060405280519060200120036103a957600191505b826040516020016103ba9190612ad1565b60405160208183030381529060405280519060200120600482815481106103e4576103e3612ae8565b5b906000526020600020016040516020016103fe9190612c0f565b60405160208183030381529060405280519060200120036104225760029150610435565b808061042d90612c55565b915050610327565b5060018160ff161461047c576040517f08c379a000000000000000000000000000000000000000000000000000000000815260040161047390612ce9565b60405180910390fd5b6004849080600181540180825580915050600190039060005260206000200160009091909190915090816104b09190612ea0565b505050505050565b600060405180606001604052808681526020018581526020018481525090506000826040516104e79190612ad1565b908152602001604051809103902081908060018154018082558091505060019003906000526020600020906003020160009091909190915060008201518160000190816105349190612ea0565b50602082015181600101908161054a9190612ea0565b5060408201518160020190816105609190612ea0565b5050505050505050565b60058260405161057a9190612ad1565b9081526020016040518091039020819080600181540180825580915050600190039060005260206000200160009091909190915090816105ba9190612ea0565b506105c481611c4f565b5050565b60606002805480602002602001604051908101604052809291908181526020016000905b8282101561090c57838290600052602060002090600702016040518060e001604052908160008201805461061f90612b46565b80601f016020809104026020016040519081016040528092919081815260200182805461064b90612b46565b80156106985780601f1061066d57610100808354040283529160200191610698565b820191906000526020600020905b81548152906001019060200180831161067b57829003601f168201915b505050505081526020016001820180546106b190612b46565b80601f01602080910402602001604051908101604052809291908181526020018280546106dd90612b46565b801561072a5780601f106106ff5761010080835404028352916020019161072a565b820191906000526020600020905b81548152906001019060200180831161070d57829003601f168201915b5050505050815260200160028201805461074390612b46565b80601f016020809104026020016040519081016040528092919081815260200182805461076f90612b46565b80156107bc5780601f10610791576101008083540402835291602001916107bc565b820191906000526020600020905b81548152906001019060200180831161079f57829003601f168201915b50505050508152602001600382015481526020016004820180546107df90612b46565b80601f016020809104026020016040519081016040528092919081815260200182805461080b90612b46565b80156108585780601f1061082d57610100808354040283529160200191610858565b820191906000526020600020905b81548152906001019060200180831161083b57829003601f168201915b5050505050815260200160058201805461087190612b46565b80601f016020809104026020016040519081016040528092919081815260200182805461089d90612b46565b80156108ea5780601f106108bf576101008083540402835291602001916108ea565b820191906000526020600020905b8154815290600101906020018083116108cd57829003601f168201915b50505050508152602001600682015481525050815260200190600101906105ec565b50505050905090565b60606000826040516109279190612ad1565b9081526020016040518091039020805480602002602001604051908101604052809291908181526020016000905b82821015610b3d578382906000526020600020906003020160405180606001604052908160008201805461098890612b46565b80601f01602080910402602001604051908101604052809291908181526020018280546109b490612b46565b8015610a015780601f106109d657610100808354040283529160200191610a01565b820191906000526020600020905b8154815290600101906020018083116109e457829003601f168201915b50505050508152602001600182018054610a1a90612b46565b80601f0160208091040260200160405190810160405280929190818152602001828054610a4690612b46565b8015610a935780601f10610a6857610100808354040283529160200191610a93565b820191906000526020600020905b815481529060010190602001808311610a7657829003601f168201915b50505050508152602001600282018054610aac90612b46565b80601f0160208091040260200160405190810160405280929190818152602001828054610ad890612b46565b8015610b255780601f10610afa57610100808354040283529160200191610b25565b820191906000526020600020905b815481529060010190602001808311610b0857829003601f168201915b50505050508152505081526020019060010190610955565b505050509050919050565b6060600582604051610b5a9190612ad1565b9081526020016040518091039020805480602002602001604051908101604052809291908181526020016000905b82821015610c34578382906000526020600020018054610ba790612b46565b80601f0160208091040260200160405190810160405280929190818152602001828054610bd390612b46565b8015610c205780601f10610bf557610100808354040283529160200191610c20565b820191906000526020600020905b815481529060010190602001808311610c0357829003601f168201915b505050505081526020019060010190610b88565b505050509050919050565b6000828051602081018201805184825260208301602085012081835280955050505050508181548110610c7157600080fd5b906000526020600020906003020160009150915050806000018054610c9590612b46565b80601f0160208091040260200160405190810160405280929190818152602001828054610cc190612b46565b8015610d0e5780601f10610ce357610100808354040283529160200191610d0e565b820191906000526020600020905b815481529060010190602001808311610cf157829003601f168201915b505050505090806001018054610d2390612b46565b80601f0160208091040260200160405190810160405280929190818152602001828054610d4f90612b46565b8015610d9c5780601f10610d7157610100808354040283529160200191610d9c565b820191906000526020600020905b815481529060010190602001808311610d7f57829003601f168201915b505050505090806002018054610db190612b46565b80601f0160208091040260200160405190810160405280929190818152602001828054610ddd90612b46565b8015610e2a5780601f10610dff57610100808354040283529160200191610e2a565b820191906000526020600020905b815481529060010190602001808311610e0d57829003601f168201915b5050505050905083565b6060600682604051610e469190612ad1565b9081526020016040518091039020805480602002602001604051908101604052809291908181526020016000905b82821015610f20578382906000526020600020018054610e9390612b46565b80601f0160208091040260200160405190810160405280929190818152602001828054610ebf90612b46565b8015610f0c5780601f10610ee157610100808354040283529160200191610f0c565b820191906000526020600020905b815481529060010190602001808311610eef57829003601f168201915b505050505081526020019060010190610e74565b505050509050919050565b8560011515600382604051610f409190612ad1565b908152602001604051809103902060030160009054906101000a900460ff16151503610fa1576040517f08c379a0000000000000000000000000000000000000000000000000000000008152600401610f9890612fbe565b60405180910390fd5b60006040518060c00160405280888152602001878152602001868152602001600115158152602001851515815260200184815250905080600389604051610fe89190612ad1565b9081526020016040518091039020600082015181600001908161100b9190612ea0565b5060208201518160010190816110219190612ea0565b5060408201518160020190816110379190612ea0565b5060608201518160030160006101000a81548160ff02191690831515021790555060808201518160030160016101000a81548160ff02191690831515021790555060a082015181600401908161108d9190612ea0565b509050505050505050505050565b60018280516020810182018051848252602083016020850120818352809550505050505081815481106110cd57600080fd5b9060005260206000209060070201600091509150508060000180546110f190612b46565b80601f016020809104026020016040519081016040528092919081815260200182805461111d90612b46565b801561116a5780601f1061113f5761010080835404028352916020019161116a565b820191906000526020600020905b81548152906001019060200180831161114d57829003601f168201915b50505050509080600101805461117f90612b46565b80601f01602080910402602001604051908101604052809291908181526020018280546111ab90612b46565b80156111f85780601f106111cd576101008083540402835291602001916111f8565b820191906000526020600020905b8154815290600101906020018083116111db57829003601f168201915b50505050509080600201805461120d90612b46565b80601f016020809104026020016040519081016040528092919081815260200182805461123990612b46565b80156112865780601f1061125b57610100808354040283529160200191611286565b820191906000526020600020905b81548152906001019060200180831161126957829003601f168201915b5050505050908060030154908060040180546112a190612b46565b80601f01602080910402602001604051908101604052809291908181526020018280546112cd90612b46565b801561131a5780601f106112ef5761010080835404028352916020019161131a565b820191906000526020600020905b8154815290600101906020018083116112fd57829003601f168201915b50505050509080600501805461132f90612b46565b80601f016020809104026020016040519081016040528092919081815260200182805461135b90612b46565b80156113a85780601f1061137d576101008083540402835291602001916113a8565b820191906000526020600020905b81548152906001019060200180831161138b57829003601f168201915b5050505050908060060154905087565b6113c0611d8c565b6003826040516113d09190612ad1565b90815260200160405180910390206040518060c00160405290816000820180546113f990612b46565b80601f016020809104026020016040519081016040528092919081815260200182805461142590612b46565b80156114725780601f1061144757610100808354040283529160200191611472565b820191906000526020600020905b81548152906001019060200180831161145557829003601f168201915b5050505050815260200160018201805461148b90612b46565b80601f01602080910402602001604051908101604052809291908181526020018280546114b790612b46565b80156115045780601f106114d957610100808354040283529160200191611504565b820191906000526020600020905b8154815290600101906020018083116114e757829003601f168201915b5050505050815260200160028201805461151d90612b46565b80601f016020809104026020016040519081016040528092919081815260200182805461154990612b46565b80156115965780601f1061156b57610100808354040283529160200191611596565b820191906000526020600020905b81548152906001019060200180831161157957829003601f168201915b505050505081526020016003820160009054906101000a900460ff161515151581526020016003820160019054906101000a900460ff161515151581526020016004820180546115e590612b46565b80601f016020809104026020016040519081016040528092919081815260200182805461161190612b46565b801561165e5780601f106116335761010080835404028352916020019161165e565b820191906000526020600020905b81548152906001019060200180831161164157829003601f168201915b5050505050815250509050919050565b60606001826040516116809190612ad1565b9081526020016040518091039020805480602002602001604051908101604052809291908181526020016000905b828210156119ce57838290600052602060002090600702016040518060e00160405290816000820180546116e190612b46565b80601f016020809104026020016040519081016040528092919081815260200182805461170d90612b46565b801561175a5780601f1061172f5761010080835404028352916020019161175a565b820191906000526020600020905b81548152906001019060200180831161173d57829003601f168201915b5050505050815260200160018201805461177390612b46565b80601f016020809104026020016040519081016040528092919081815260200182805461179f90612b46565b80156117ec5780601f106117c1576101008083540402835291602001916117ec565b820191906000526020600020905b8154815290600101906020018083116117cf57829003601f168201915b5050505050815260200160028201805461180590612b46565b80601f016020809104026020016040519081016040528092919081815260200182805461183190612b46565b801561187e5780601f106118535761010080835404028352916020019161187e565b820191906000526020600020905b81548152906001019060200180831161186157829003601f168201915b50505050508152602001600382015481526020016004820180546118a190612b46565b80601f01602080910402602001604051908101604052809291908181526020018280546118cd90612b46565b801561191a5780601f106118ef5761010080835404028352916020019161191a565b820191906000526020600020905b8154815290600101906020018083116118fd57829003601f168201915b5050505050815260200160058201805461193390612b46565b80601f016020809104026020016040519081016040528092919081815260200182805461195f90612b46565b80156119ac5780601f10611981576101008083540402835291602001916119ac565b820191906000526020600020905b81548152906001019060200180831161198f57829003601f168201915b50505050508152602001600682015481525050815260200190600101906116ae565b505050509050919050565b6000806000905060005b600480549050811015611a7c5783604051602001611a019190612ad1565b6040516020818303038152906040528051906020012060048281548110611a2b57611a2a612ae8565b5b90600052602060002001604051602001611a459190612c0f565b6040516020818303038152906040528051906020012003611a695760019150611a7c565b8080611a7490612c55565b9150506119e3565b5080915050919050565b60006040518060e0016040528089815260200188815260200187815260200184815260200186815260200185815260200160008152509050600182604051611ace9190612ad1565b90815260200160405180910390208190806001815401808255809150506001900390600052602060002090600702016000909190919091506000820151816000019081611b1b9190612ea0565b506020820151816001019081611b319190612ea0565b506040820151816002019081611b479190612ea0565b50606082015181600301556080820151816004019081611b679190612ea0565b5060a0820151816005019081611b7d9190612ea0565b5060c08201518160060155505060028190806001815401808255809150506001900390600052602060002090600702016000909190919091506000820151816000019081611bcb9190612ea0565b506020820151816001019081611be19190612ea0565b506040820151816002019081611bf79190612ea0565b50606082015181600301556080820151816004019081611c179190612ea0565b5060a0820151816005019081611c2d9190612ea0565b5060c082015181600601555050611c448989611d37565b505050505050505050565b60005b6002805490508161ffff161015611d335781604051602001611c749190612ad1565b6040516020818303038152906040528051906020012060028261ffff1681548110611ca257611ca1612ae8565b5b9060005260206000209060070201600001604051602001611cc39190612c0f565b6040516020818303038152906040528051906020012003611d2057600160028261ffff1681548110611cf857611cf7612ae8565b5b90600052602060002090600702016006016000828254611d189190612fde565b925050819055505b8080611d2b90613020565b915050611c52565b5050565b600682604051611d479190612ad1565b908152602001604051809103902081908060018154018082558091505060019003906000526020600020016000909190919091509081611d879190612ea0565b505050565b6040518060c00160405280606081526020016060815260200160608152602001600015158152602001600015158152602001606081525090565b6000604051905090565b600080fd5b600080fd5b600080fd5b600080fd5b6000601f19601f8301169050919050565b7f4e487b7100000000000000000000000000000000000000000000000000000000600052604160045260246000fd5b611e2d82611de4565b810181811067ffffffffffffffff82111715611e4c57611e4b611df5565b5b80604052505050565b6000611e5f611dc6565b9050611e6b8282611e24565b919050565b600067ffffffffffffffff821115611e8b57611e8a611df5565b5b611e9482611de4565b9050602081019050919050565b82818337600083830152505050565b6000611ec3611ebe84611e70565b611e55565b905082815260208101848484011115611edf57611ede611ddf565b5b611eea848285611ea1565b509392505050565b600082601f830112611f0757611f06611dda565b5b8135611f17848260208601611eb0565b91505092915050565b60008060408385031215611f3757611f36611dd0565b5b600083013567ffffffffffffffff811115611f5557611f54611dd5565b5b611f6185828601611ef2565b925050602083013567ffffffffffffffff811115611f8257611f81611dd5565b5b611f8e85828601611ef2565b9150509250929050565b60008060008060808587031215611fb257611fb1611dd0565b5b600085013567ffffffffffffffff811115611fd057611fcf611dd5565b5b611fdc87828801611ef2565b945050602085013567ffffffffffffffff811115611ffd57611ffc611dd5565b5b61200987828801611ef2565b935050604085013567ffffffffffffffff81111561202a57612029611dd5565b5b61203687828801611ef2565b925050606085013567ffffffffffffffff81111561205757612056611dd5565b5b61206387828801611ef2565b91505092959194509250565b600081519050919050565b600082825260208201905092915050565b6000819050602082019050919050565b600081519050919050565b600082825260208201905092915050565b60005b838110156120d55780820151818401526020810190506120ba565b60008484015250505050565b60006120ec8261209b565b6120f681856120a6565b93506121068185602086016120b7565b61210f81611de4565b840191505092915050565b6000819050919050565b61212d8161211a565b82525050565b600060e083016000830151848203600086015261215082826120e1565b9150506020830151848203602086015261216a82826120e1565b9150506040830151848203604086015261218482826120e1565b91505060608301516121996060860182612124565b50608083015184820360808601526121b182826120e1565b91505060a083015184820360a08601526121cb82826120e1565b91505060c08301516121e060c0860182612124565b508091505092915050565b60006121f78383612133565b905092915050565b6000602082019050919050565b60006122178261206f565b612221818561207a565b9350836020820285016122338561208b565b8060005b8581101561226f578484038952815161225085826121eb565b945061225b836121ff565b925060208a01995050600181019050612237565b50829750879550505050505092915050565b6000602082019050818103600083015261229b818461220c565b905092915050565b6000602082840312156122b9576122b8611dd0565b5b600082013567ffffffffffffffff8111156122d7576122d6611dd5565b5b6122e384828501611ef2565b91505092915050565b600081519050919050565b600082825260208201905092915050565b6000819050602082019050919050565b6000606083016000830151848203600086015261233582826120e1565b9150506020830151848203602086015261234f82826120e1565b9150506040830151848203604086015261236982826120e1565b9150508091505092915050565b60006123828383612318565b905092915050565b6000602082019050919050565b60006123a2826122ec565b6123ac81856122f7565b9350836020820285016123be85612308565b8060005b858110156123fa57848403895281516123db8582612376565b94506123e68361238a565b925060208a019950506001810190506123c2565b50829750879550505050505092915050565b600060208201905081810360008301526124268184612397565b905092915050565b600081519050919050565b600082825260208201905092915050565b6000819050602082019050919050565b600061246683836120e1565b905092915050565b6000602082019050919050565b60006124868261242e565b6124908185612439565b9350836020820285016124a28561244a565b8060005b858110156124de57848403895281516124bf858261245a565b94506124ca8361246e565b925060208a019950506001810190506124a6565b50829750879550505050505092915050565b6000602082019050818103600083015261250a818461247b565b905092915050565b61251b8161211a565b811461252657600080fd5b50565b60008135905061253881612512565b92915050565b6000806040838503121561255557612554611dd0565b5b600083013567ffffffffffffffff81111561257357612572611dd5565b5b61257f85828601611ef2565b925050602061259085828601612529565b9150509250929050565b600082825260208201905092915050565b60006125b68261209b565b6125c0818561259a565b93506125d08185602086016120b7565b6125d981611de4565b840191505092915050565b600060608201905081810360008301526125fe81866125ab565b9050818103602083015261261281856125ab565b9050818103604083015261262681846125ab565b9050949350505050565b60008115159050919050565b61264581612630565b811461265057600080fd5b50565b6000813590506126628161263c565b92915050565b60008060008060008060c0878903121561268557612684611dd0565b5b600087013567ffffffffffffffff8111156126a3576126a2611dd5565b5b6126af89828a01611ef2565b965050602087013567ffffffffffffffff8111156126d0576126cf611dd5565b5b6126dc89828a01611ef2565b955050604087013567ffffffffffffffff8111156126fd576126fc611dd5565b5b61270989828a01611ef2565b945050606087013567ffffffffffffffff81111561272a57612729611dd5565b5b61273689828a01611ef2565b935050608061274789828a01612653565b92505060a087013567ffffffffffffffff81111561276857612767611dd5565b5b61277489828a01611ef2565b9150509295509295509295565b61278a8161211a565b82525050565b600060e08201905081810360008301526127aa818a6125ab565b905081810360208301526127be81896125ab565b905081810360408301526127d281886125ab565b90506127e16060830187612781565b81810360808301526127f381866125ab565b905081810360a083015261280781856125ab565b905061281660c0830184612781565b98975050505050505050565b61282b81612630565b82525050565b600060c083016000830151848203600086015261284e82826120e1565b9150506020830151848203602086015261286882826120e1565b9150506040830151848203604086015261288282826120e1565b91505060608301516128976060860182612822565b5060808301516128aa6080860182612822565b5060a083015184820360a08601526128c282826120e1565b9150508091505092915050565b600060208201905081810360008301526128e98184612831565b905092915050565b6128fa81612630565b82525050565b600060208201905061291560008301846128f1565b92915050565b600080600080600080600080610100898b03121561293c5761293b611dd0565b5b600089013567ffffffffffffffff81111561295a57612959611dd5565b5b6129668b828c01611ef2565b985050602089013567ffffffffffffffff81111561298757612986611dd5565b5b6129938b828c01611ef2565b975050604089013567ffffffffffffffff8111156129b4576129b3611dd5565b5b6129c08b828c01611ef2565b965050606089013567ffffffffffffffff8111156129e1576129e0611dd5565b5b6129ed8b828c01611ef2565b955050608089013567ffffffffffffffff811115612a0e57612a0d611dd5565b5b612a1a8b828c01611ef2565b94505060a089013567ffffffffffffffff811115612a3b57612a3a611dd5565b5b612a478b828c01611ef2565b93505060c0612a588b828c01612529565b92505060e089013567ffffffffffffffff811115612a7957612a78611dd5565b5b612a858b828c01611ef2565b9150509295985092959890939650565b600081905092915050565b6000612aab8261209b565b612ab58185612a95565b9350612ac58185602086016120b7565b80840191505092915050565b6000612add8284612aa0565b915081905092915050565b7f4e487b7100000000000000000000000000000000000000000000000000000000600052603260045260246000fd5b7f4e487b7100000000000000000000000000000000000000000000000000000000600052602260045260246000fd5b60006002820490506001821680612b5e57607f821691505b602082108103612b7157612b70612b17565b5b50919050565b60008190508160005260206000209050919050565b60008154612b9981612b46565b612ba38186612a95565b94506001821660008114612bbe5760018114612bd357612c06565b60ff1983168652811515820286019350612c06565b612bdc85612b77565b60005b83811015612bfe57815481890152600182019150602081019050612bdf565b838801955050505b50505092915050565b6000612c1b8284612b8c565b915081905092915050565b7f4e487b7100000000000000000000000000000000000000000000000000000000600052601160045260246000fd5b6000612c608261211a565b91507fffffffffffffffffffffffffffffffffffffffffffffffffffffffffffffffff8203612c9257612c91612c26565b5b600182019050919050565b7f5468697320557365722063616e277420626520612041646d696e000000000000600082015250565b6000612cd3601a8361259a565b9150612cde82612c9d565b602082019050919050565b60006020820190508181036000830152612d0281612cc6565b9050919050565b60006020601f8301049050919050565b600082821b905092915050565b600060088302612d567fffffffffffffffffffffffffffffffffffffffffffffffffffffffffffffffff82612d19565b612d608683612d19565b95508019841693508086168417925050509392505050565b6000819050919050565b6000612d9d612d98612d938461211a565b612d78565b61211a565b9050919050565b6000819050919050565b612db783612d82565b612dcb612dc382612da4565b848454612d26565b825550505050565b600090565b612de0612dd3565b612deb818484612dae565b505050565b5b81811015612e0f57612e04600082612dd8565b600181019050612df1565b5050565b601f821115612e5457612e2581612b77565b612e2e84612d09565b81016020851015612e3d578190505b612e51612e4985612d09565b830182612df0565b50505b505050565b600082821c905092915050565b6000612e7760001984600802612e59565b1980831691505092915050565b6000612e908383612e66565b9150826002028217905092915050565b612ea98261209b565b67ffffffffffffffff811115612ec257612ec1611df5565b5b612ecc8254612b46565b612ed7828285612e13565b600060209050601f831160018114612f0a5760008415612ef8578287015190505b612f028582612e84565b865550612f6a565b601f198416612f1886612b77565b60005b82811015612f4057848901518255600182019150602085019450602081019050612f1b565b86831015612f5d5784890151612f59601f891682612e66565b8355505b6001600288020188555050505b505050505050565b7f596f752061726520416c7265616479207369676e496e2e2e0000000000000000600082015250565b6000612fa860188361259a565b9150612fb382612f72565b602082019050919050565b60006020820190508181036000830152612fd781612f9b565b9050919050565b6000612fe98261211a565b9150612ff48361211a565b925082820190508082111561300c5761300b612c26565b5b92915050565b600061ffff82169050919050565b600061302b82613012565b915061ffff820361303f5761303e612c26565b5b60018201905091905056fea2646970667358221220604cb3ef7c35785d16c176dfd8800c71197b49bafd757f292d9585e40bd22afc64736f6c63430008130033307841453630386235643139663643614542363732386232663537393234424637386135386244353339",
  "immutableReferences": {},
  "source": "pragma solidity ^0.8.19;\n\ncontract Main {\n    // a structure for file metadata\n    //redeploy\n    struct DocInfo {\n        string ipfsHash;\n        string fileName;\n        string fileType;\n        uint256 fileSize;\n        string dateAdded;\n        string timeAdded;\n        uint256 downloadCount;\n    }\n    \n\n    // user info structure for sign up\n    struct UserInfo {\n        string name;\n        string username;\n        string email;\n        bool isexist;\n        bool isAdmin;\n        string adminId;\n    }\n\n    struct ChallengeResponseFiles {\n        string ChallengeHash;\n        string ResponseHash;\n        string DeviceId;\n    }\n\n\n    //Manufacturer ID mapped with challenge response and file info\n    mapping(string => ChallengeResponseFiles[]) public CRList;\n\n    // Device id mapped with docInfo\n    mapping(string => DocInfo[]) public filehashList;\n\n    DocInfo[] private metadata;\n    // storing metadata of uploaded files\n\n    mapping(string => UserInfo) userNameToData;\n    // user Address to UserInfo\n\n    string[] private adminList;\n    //list of all admin addresses\n\n    mapping(string => string[]) downloadedByUser;\n    // mapping user address by ipfs code of downloaded files\n\n    mapping(string => string[]) uploadedByAdmin;\n\n    // mapping admin address by ipfs code of uploaded files\n\n    constructor() {\n        adminList.push(\"0xAE608b5d19f6CaEB6728b2f57924BF78a58bD539\");\n        // first admin,  only who can add another admins\n    }\n\n    modifier validAdmin(string memory prev, string memory newAdmin) {\n        uint8 flag = 0;\n\n        for (uint256 i = 0; i < adminList.length; i++) {\n            if (\n                keccak256(abi.encodePacked(adminList[i])) ==\n                keccak256(abi.encodePacked(prev))\n            ) {\n                flag = 1;\n            }\n\n            if (\n                keccak256(abi.encodePacked(adminList[i])) ==\n                keccak256(abi.encodePacked(newAdmin))\n            ) {\n                flag = 2;\n                // new admin already in admin list\n                break;\n            }\n        }\n\n        require(flag == 1, \"This User can't be a Admin\");\n        _;\n    }\n\n    modifier isSignUp(string memory _address) {\n        require(\n            userNameToData[_address].isexist != true,\n            \"You are Already signIn..\"\n        );\n        _;\n    }\n\n    // added a new device by an admin\n        function addDevice(\n        string memory _ChallengeHash,\n        string memory _ResponseHash,\n        string memory _DeviceId,\n        string memory _mId\n    ) public {\n        ChallengeResponseFiles memory docInfo = ChallengeResponseFiles(\n                 _ChallengeHash,\n                _ResponseHash,\n                _DeviceId\n        );\n\n        CRList[_mId].push(docInfo);\n    }\n\n    // get all devices for an admin\n    function getDevices(\n        string memory _mId\n    ) public view returns(ChallengeResponseFiles[] memory){\n        return CRList[_mId];\n    }\n\n    // get all files for an device\n    function getfiles(\n        string memory _deviceId\n    ) public view returns(DocInfo[] memory){\n        return filehashList[_deviceId];\n    }\n\n\n    // before adding a new admin check 2 things:\n    // 1) new user is not in admin list\n    // 2) prev. user is in admin list\n    function adminAdd(\n        string memory prev,\n        string memory newAdmin\n    ) public validAdmin(prev, newAdmin) {\n        adminList.push(newAdmin);\n    }\n\n    //  new user sign Up but before sign Up check:\n    //  already this user is register or not\n    function signUp(\n        string memory _address,\n        string memory _name,\n        string memory _userName,\n        string memory _email,\n        bool _isAdmin,\n        string memory _adminId\n    ) public isSignUp(_address) {\n        UserInfo memory userInfo = UserInfo(_name, _userName, _email, true, _isAdmin, _adminId);\n\n        userNameToData[_address] = userInfo;\n    }\n\n    // just check already registerd or not\n    function signIn(string memory _address) public view returns (UserInfo memory) {\n        return userNameToData[_address];\n    }\n\n    //  checkin for valid admin\n    function isAdmin(string memory _address) public view returns (bool) {\n        bool flag = false;\n\n        for (uint256 i = 0; i < adminList.length; i++) {\n            if (\n                keccak256(abi.encodePacked(adminList[i])) ==\n                keccak256(abi.encodePacked(_address))\n            ) {\n                flag = true;\n                break;\n            }\n        }\n\n        return flag;\n    }\n\n    // adding new file in system\n    function addFile(\n        string memory _address,\n        string memory _ipfsHash,\n        string memory _fileName,\n        string memory _fileType,\n        string memory _dateAdded,\n        string memory _timeAdded,\n        uint256 _fileSize,\n        string memory _deviceId\n    ) public {\n        DocInfo memory docInfo = DocInfo(\n            _ipfsHash,\n            _fileName,\n            _fileType,\n            _fileSize,\n            _dateAdded,\n            _timeAdded,\n            0\n        );\n\n        filehashList[_deviceId].push(docInfo);\n\n        metadata.push(docInfo);\n        newUploadByAdmin(_address, _ipfsHash);\n    }\n\n    // if a new file is downloaded by user then increase download count of file and added the file in download list of user\n    function newDownloadByUser(\n        string memory _address,\n        string memory _ipfs\n    ) public {\n        downloadedByUser[_address].push(_ipfs);\n\n        newDownload(_ipfs);\n    }\n\n    // if a new file is uploaded then added this file to list of files for admin\n    function newUploadByAdmin(\n        string memory _address,\n        string memory _ipfs\n    ) private {\n        uploadedByAdmin[_address].push(_ipfs);\n    }\n\n    function newDownload(string memory _ipfsHash) private {\n        for (uint16 i = 0; i < metadata.length; i++) {\n            if (\n                keccak256(abi.encodePacked(metadata[i].ipfsHash)) ==\n                keccak256(abi.encodePacked(_ipfsHash))\n            ) {\n                metadata[i].downloadCount += 1;\n            }\n        }\n    }\n\n    // return all available files\n    function getFiles() public view returns (DocInfo[] memory) {\n        return metadata;\n    }\n\n    // return all files downloaded by a user\n    function downloadedbyUser(\n        string memory _address\n    ) public view returns (string[] memory) {\n        return downloadedByUser[_address];\n    }\n\n    // return all files uploaded by a admin\n    function uploadedbyAdmin(\n        string memory _address\n    ) public view returns (string[] memory) {\n        return uploadedByAdmin[_address];\n    }\n}\n",
  "sourcePath": "/Users/ayx105215/Desktop/Aditya/FinalTry/contracts/Main.sol",
  "compiler": {
    "name": "solc",
    "version": "0.8.19+commit.7dd6d404.Emscripten.clang"
  },
  "schemaVersion": "3.4.16",
  "updatedAt": "2024-05-04T21:54:58.043Z",
  "networkType": "ethereum",
  "devdoc": {
    "kind": "dev",
    "methods": {},
    "version": 1
  },
  "userdoc": {
    "kind": "user",
    "methods": {},
    "version": 1
  }
}