{
  "contractName": "Register",
  "abi": [
    {
      "anonymous": false,
      "inputs": [
        {
          "indexed": true,
          "internalType": "address",
          "name": "userAddress",
          "type": "address"
        },
        {
          "indexed": false,
          "internalType": "string",
          "name": "userName",
          "type": "string"
        },
        {
          "indexed": false,
          "internalType": "string",
          "name": "email",
          "type": "string"
        },
        {
          "indexed": false,
          "internalType": "enum Register.Role",
          "name": "role",
          "type": "uint8"
        }
      ],
      "name": "UserRegistered",
      "type": "event"
    },
    {
      "inputs": [
        {
          "internalType": "address",
          "name": "",
          "type": "address"
        }
      ],
      "name": "users",
      "outputs": [
        {
          "internalType": "string",
          "name": "userName",
          "type": "string"
        },
        {
          "internalType": "string",
          "name": "email",
          "type": "string"
        },
        {
          "internalType": "enum Register.Role",
          "name": "role",
          "type": "uint8"
        },
        {
          "internalType": "string",
          "name": "signedMessage",
          "type": "string"
        }
      ],
      "stateMutability": "view",
      "type": "function",
      "constant": true
    },
    {
      "inputs": [
        {
          "internalType": "string",
          "name": "_userName",
          "type": "string"
        },
        {
          "internalType": "string",
          "name": "_email",
          "type": "string"
        },
        {
          "internalType": "enum Register.Role",
          "name": "_role",
          "type": "uint8"
        },
        {
          "internalType": "string",
          "name": "_signedMessage",
          "type": "string"
        }
      ],
      "name": "register",
      "outputs": [],
      "stateMutability": "nonpayable",
      "type": "function"
    },
    {
      "inputs": [
        {
          "internalType": "address",
          "name": "_userAddress",
          "type": "address"
        }
      ],
      "name": "getUser",
      "outputs": [
        {
          "internalType": "string",
          "name": "",
          "type": "string"
        },
        {
          "internalType": "string",
          "name": "",
          "type": "string"
        },
        {
          "internalType": "enum Register.Role",
          "name": "",
          "type": "uint8"
        },
        {
          "internalType": "string",
          "name": "",
          "type": "string"
        }
      ],
      "stateMutability": "view",
      "type": "function",
      "constant": true
    }
  ],
  "bytecode": "0x608060405234801561001057600080fd5b50610f1c806100206000396000f3fe608060405234801561001057600080fd5b50600436106100415760003560e01c806368ce4afd146100465780636f77926b14610062578063a87430ba14610095575b600080fd5b610060600480360381019061005b919061084b565b6100c8565b005b61007c60048036038101906100779190610964565b61028e565b60405161008c9493929190610a87565b60405180910390f35b6100af60048036038101906100aa9190610964565b6104f7565b6040516100bf9493929190610a87565b60405180910390f35b600084511161010c576040517f08c379a000000000000000000000000000000000000000000000000000000000815260040161010390610b2d565b60405180910390fd5b6000835111610150576040517f08c379a000000000000000000000000000000000000000000000000000000000815260040161014790610b99565b60405180910390fd5b604051806080016040528085815260200184815260200183600281111561017a57610179610a10565b5b8152602001828152506000803373ffffffffffffffffffffffffffffffffffffffff1673ffffffffffffffffffffffffffffffffffffffff16815260200190815260200160002060008201518160000190816101d69190610dcf565b5060208201518160010190816101ec9190610dcf565b5060408201518160020160006101000a81548160ff0219169083600281111561021857610217610a10565b5b021790555060608201518160030190816102329190610dcf565b509050503373ffffffffffffffffffffffffffffffffffffffff167fb55f2195f4d9bf657054eaed9581ba0a67e1eec660941cf665585e5352fcbea085858560405161028093929190610ea1565b60405180910390a250505050565b6060806000606060008060008773ffffffffffffffffffffffffffffffffffffffff1673ffffffffffffffffffffffffffffffffffffffff1681526020019081526020016000206040518060800160405290816000820180546102f090610be8565b80601f016020809104026020016040519081016040528092919081815260200182805461031c90610be8565b80156103695780601f1061033e57610100808354040283529160200191610369565b820191906000526020600020905b81548152906001019060200180831161034c57829003601f168201915b5050505050815260200160018201805461038290610be8565b80601f01602080910402602001604051908101604052809291908181526020018280546103ae90610be8565b80156103fb5780601f106103d0576101008083540402835291602001916103fb565b820191906000526020600020905b8154815290600101906020018083116103de57829003601f168201915b505050505081526020016002820160009054906101000a900460ff16600281111561042957610428610a10565b5b600281111561043b5761043a610a10565b5b815260200160038201805461044f90610be8565b80601f016020809104026020016040519081016040528092919081815260200182805461047b90610be8565b80156104c85780601f1061049d576101008083540402835291602001916104c8565b820191906000526020600020905b8154815290600101906020018083116104ab57829003601f168201915b505050505081525050905080600001518160200151826040015183606001519450945094509450509193509193565b600060205280600052604060002060009150905080600001805461051a90610be8565b80601f016020809104026020016040519081016040528092919081815260200182805461054690610be8565b80156105935780601f1061056857610100808354040283529160200191610593565b820191906000526020600020905b81548152906001019060200180831161057657829003601f168201915b5050505050908060010180546105a890610be8565b80601f01602080910402602001604051908101604052809291908181526020018280546105d490610be8565b80156106215780601f106105f657610100808354040283529160200191610621565b820191906000526020600020905b81548152906001019060200180831161060457829003601f168201915b5050505050908060020160009054906101000a900460ff169080600301805461064990610be8565b80601f016020809104026020016040519081016040528092919081815260200182805461067590610be8565b80156106c25780601f10610697576101008083540402835291602001916106c2565b820191906000526020600020905b8154815290600101906020018083116106a557829003601f168201915b5050505050905084565b6000604051905090565b600080fd5b600080fd5b600080fd5b600080fd5b6000601f19601f8301169050919050565b7f4e487b7100000000000000000000000000000000000000000000000000000000600052604160045260246000fd5b610733826106ea565b810181811067ffffffffffffffff82111715610752576107516106fb565b5b80604052505050565b60006107656106cc565b9050610771828261072a565b919050565b600067ffffffffffffffff821115610791576107906106fb565b5b61079a826106ea565b9050602081019050919050565b82818337600083830152505050565b60006107c96107c484610776565b61075b565b9050828152602081018484840111156107e5576107e46106e5565b5b6107f08482856107a7565b509392505050565b600082601f83011261080d5761080c6106e0565b5b813561081d8482602086016107b6565b91505092915050565b6003811061083357600080fd5b50565b60008135905061084581610826565b92915050565b60008060008060808587031215610865576108646106d6565b5b600085013567ffffffffffffffff811115610883576108826106db565b5b61088f878288016107f8565b945050602085013567ffffffffffffffff8111156108b0576108af6106db565b5b6108bc878288016107f8565b93505060406108cd87828801610836565b925050606085013567ffffffffffffffff8111156108ee576108ed6106db565b5b6108fa878288016107f8565b91505092959194509250565b600073ffffffffffffffffffffffffffffffffffffffff82169050919050565b600061093182610906565b9050919050565b61094181610926565b811461094c57600080fd5b50565b60008135905061095e81610938565b92915050565b60006020828403121561097a576109796106d6565b5b60006109888482850161094f565b91505092915050565b600081519050919050565b600082825260208201905092915050565b60005b838110156109cb5780820151818401526020810190506109b0565b60008484015250505050565b60006109e282610991565b6109ec818561099c565b93506109fc8185602086016109ad565b610a05816106ea565b840191505092915050565b7f4e487b7100000000000000000000000000000000000000000000000000000000600052602160045260246000fd5b60038110610a5057610a4f610a10565b5b50565b6000819050610a6182610a3f565b919050565b6000610a7182610a53565b9050919050565b610a8181610a66565b82525050565b60006080820190508181036000830152610aa181876109d7565b90508181036020830152610ab581866109d7565b9050610ac46040830185610a78565b8181036060830152610ad681846109d7565b905095945050505050565b7f557365726e616d652063616e6e6f7420626520656d7074790000000000000000600082015250565b6000610b1760188361099c565b9150610b2282610ae1565b602082019050919050565b60006020820190508181036000830152610b4681610b0a565b9050919050565b7f456d61696c2063616e6e6f7420626520656d7074790000000000000000000000600082015250565b6000610b8360158361099c565b9150610b8e82610b4d565b602082019050919050565b60006020820190508181036000830152610bb281610b76565b9050919050565b7f4e487b7100000000000000000000000000000000000000000000000000000000600052602260045260246000fd5b60006002820490506001821680610c0057607f821691505b602082108103610c1357610c12610bb9565b5b50919050565b60008190508160005260206000209050919050565b60006020601f8301049050919050565b600082821b905092915050565b600060088302610c7b7fffffffffffffffffffffffffffffffffffffffffffffffffffffffffffffffff82610c3e565b610c858683610c3e565b95508019841693508086168417925050509392505050565b6000819050919050565b6000819050919050565b6000610ccc610cc7610cc284610c9d565b610ca7565b610c9d565b9050919050565b6000819050919050565b610ce683610cb1565b610cfa610cf282610cd3565b848454610c4b565b825550505050565b600090565b610d0f610d02565b610d1a818484610cdd565b505050565b5b81811015610d3e57610d33600082610d07565b600181019050610d20565b5050565b601f821115610d8357610d5481610c19565b610d5d84610c2e565b81016020851015610d6c578190505b610d80610d7885610c2e565b830182610d1f565b50505b505050565b600082821c905092915050565b6000610da660001984600802610d88565b1980831691505092915050565b6000610dbf8383610d95565b9150826002028217905092915050565b610dd882610991565b67ffffffffffffffff811115610df157610df06106fb565b5b610dfb8254610be8565b610e06828285610d42565b600060209050601f831160018114610e395760008415610e27578287015190505b610e318582610db3565b865550610e99565b601f198416610e4786610c19565b60005b82811015610e6f57848901518255600182019150602085019450602081019050610e4a565b86831015610e8c5784890151610e88601f891682610d95565b8355505b6001600288020188555050505b505050505050565b60006060820190508181036000830152610ebb81866109d7565b90508181036020830152610ecf81856109d7565b9050610ede6040830184610a78565b94935050505056fea2646970667358221220f3b88dc47c1d213d54a00c39a48a69ea3eaa8de75b6ae7d76a00923e6af4dd0764736f6c63430008130033",
  "immutableReferences": {},
  "source": "// SPDX-License-Identifier: MIT\npragma solidity ^0.8.19;\n\ncontract Register {\n    enum Role { NormalUser, SoftwareFirm, RegulatoryBody }\n\n    struct User {\n        string userName;\n        string email;\n        Role role;\n        string signedMessage;\n    }\n\n    mapping(address => User) public users;\n\n    event UserRegistered(address indexed userAddress, string userName, string email, Role role);\n\n    function register(string memory _userName, string memory _email, Role _role, string memory _signedMessage) external {\n        require(bytes(_userName).length > 0, \"Username cannot be empty\");\n        require(bytes(_email).length > 0, \"Email cannot be empty\");\n\n        users[msg.sender] = User(_userName, _email, _role, _signedMessage);\n        emit UserRegistered(msg.sender, _userName, _email, _role);\n    }\n\n    function getUser(address _userAddress) external view returns (string memory, string memory, Role, string memory) {\n        User memory user = users[_userAddress];\n        return (user.userName, user.email, user.role, user.signedMessage);\n    }\n}\n",
  "sourcePath": "/Users/ayx105215/Desktop/Aditya/FinalTry/contracts/Register.sol",
  "compiler": {
    "name": "solc",
    "version": "0.8.19+commit.7dd6d404.Emscripten.clang"
  },
  "schemaVersion": "3.4.16",
  "updatedAt": "2024-05-04T21:54:58.050Z",
  "networkType": "ethereum",
  "devdoc": {
    "kind": "dev",
    "methods": {},
    "version": 1
  },
  "userdoc": {
    "kind": "user",
    "methods": {},
    "version": 1
  }
}